:020000040800F2
:1000000000070020890100086B0F0008690E000836
:10001000690F00088F020008FB11000800000000B3
:100020000000000000000000000000006F0F00084A
:1000300091020008000000006D0F0008710F000819
:10004000A3010008A3010008A3010008A301000800
:10005000A3010008A3010008A3010008A3010008F0
:10006000A3010008A3010008A3010008A3010008E0
:10007000A3010008A3010008A3010008A3010008D0
:10008000A3010008A3010008A3010008A3010008C0
:10009000A3010008A3010008A3010008A3010008B0
:1000A000A3010008A3010008A3010008A3010008A0
:1000B000A3010008A301000800000000A30100083C
:1000C000A30100080000000000000000A3010008D8
:1000D00000000000A3010008A301000800000000C8
:1000E000A3010008A3010008A301000800F002F822
:1000F00000F03AF80AA090E8000C82448344AAF188
:100100000107DA4501D100F02FF8AFF2090EBAE885
:100110000F0013F0010F18BFFB1A43F0010318473B
:10012000E011000000120000103A24BF78C878C126
:10013000FAD8520724BF30C830C144BF04680C60ED
:10014000704700000023002400250026103A28BF35
:1001500078C1FBD8520728BF30C148BF0B60704739
:100160001FB51FBD10B510BD00F058F81146FFF7C0
:10017000F7FF01F075F800F076F803B4FFF7F2FF2F
:1001800003BC00F07DF8000009488047094800479B
:10019000FEE7FEE7FEE7FEE7FEE7FEE7FEE7FEE737
:1001A000FEE7FEE704480549054A064B7047000094
:1001B000D10F0008ED00000800010020000700201A
:1001C00000030020000300204FF0000200B513469A
:1001D00094469646203922BFA0E80C50A0E80C5067
:1001E000B1F12001BFF4F7AF090728BFA0E80C5018
:1001F00048BF0CC05DF804EB890028BF40F8042B11
:1002000008BF704748BF20F8022B11F0804F18BF7D
:1002100000F8012B7047704770477047754600F033
:100220002BF8AE4605006946534620F00700854688
:1002300018B020B5FFF7B6FFBDE820404FF000062C
:100240004FF000074FF000084FF0000B21F00701BE
:10025000AC46ACE8C009ACE8C009ACE8C009ACE801
:10026000C0098D46704710B50446AFF300802046A4
:10027000BDE81040FFF781BF00487047A000002094
:1002800001491820ABBEFEE7260002007047FEE7DA
:10029000704700002DE9F84FDFF89C91002409F128
:1002A000040A0AF1040B23460F270BF1040EBBE0EE
:1002B0000125A5402A40AA4276D1DFF880C14E68C8
:1002C000A6EB0C0866452BD00DDC032E34D005DCE4
:1002D00036B3012E19D0022E2FD11BE0112E16D0CD
:1002E000122E2AD119E0B8F5881F19D006DCB8F50E
:1002F000803F15D0B8F5801F1FD111E0B8F5001F61
:100300000ED0B8F5041F18D10AE0CB6815E0CB6811
:100310001B1D12E0CB6808330FE0CB680C330CE0F8
:100320008B682BB1012B4FF0080303D0456104E02B
:10033000042302E0056100E00023FF2A01D80646FD
:1003400001E000F104064FEA840501D9A5F120057A
:10035000D6F8008007FA05FC28EA0C0803FA05F530
:1003600048EA0508C6F800804D68ED005BD5344DBD
:10037000AE6946F00106AE61AD6924F0030605F0F2
:10038000010500952F4D06EB050CDCF80850A6077B
:10039000360F07FA06F825EA0805DFF8AC80404575
:1003A00003D14FF0000810E03DE0DFF8A0804045A9
:1003B00002D14FF0010808E0DFF89480404502D1F7
:1003C0004FF0020801E04FF0030808FA06F848EA87
:1003D0000508CCF808804D68D9F80060ED034D465B
:1003E00001D5164300E096432E604D68DAF80060B0
:1003F000AD03554601D5164300E096432E604D6887
:10040000DBF80060ED025D4601D5164300E096433F
:100410002E604D68DEF80060AD02754601D51643CA
:1004200000E096432E60641C0A6832FA04F57FF4FB
:100430003FAFBDE8F88F000000040140000011103C
:10044000001002400000014000080140000C014083
:10045000001001400AB1016170470904FBE7000088
:100460000148806870470000000000200248816851
:10047000027811448160704700000020074810B5E1
:10048000016841F010010160032000F05FF80F20C7
:1004900000F006F800F024F8002010BD0020024013
:1004A00070B50D4D04464FF47A712878B1FBF0F029
:1004B0000A490968B1FBF0F000F0BAFA48B9102C0B
:1004C00007D200222146501E00F020F800206C6068
:1004D00070BD012070BD0000000000200C00002055
:1004E000094808B5816941F001018161816901F024
:1004F00001010091C16941F08051C161C06900F002
:100500008050009008BD000000100240F0B40E4B77
:100510001B680C46C3F30223C3F10705042D00D961
:100520000425191D072901D2002300E0DB1E012646
:1005300006FA05F1491E214099409E40761E16405C
:100540003143F0BC00F05ABE0CED00E0064900F06B
:10055000070208684FF6FF03184040EA0220034AEA
:1005600010430860704700000CED00E00000FA0541
:100570002DE9F0470F46050061D0434E306800F08A
:100580000700B84209D2306820F0070038433060D5
:10059000306800F00700B84251D128683B4C810711
:1005A00012D5400703D5606840F4E06060602878A9
:1005B000000703D5606840F4605060606068A96817
:1005C00020F0F000084360602878C00728D06868F1
:1005D000012810D02168022810D0890700292EDABE
:1005E000616821F0030101436160FFF739FF804634
:1005F00041F288390DE021688903EFE78901EDE7D1
:10060000FFF72EFFA0EB0801494502D90320BDE802
:10061000F0876068696800F00C00B0EB810FEFD1E3
:10062000306800F00700B8420BD9306820F00700AE
:1006300038433060306800F00700B84201D0012034
:10064000E5E72878400705D56068E96820F4E060B0
:10065000084360602878000706D56068296920F49F
:10066000605040EAC100606000F018F86168084A14
:10067000C1F30311515CC840064908600648006890
:10068000FFF70EFF0020C2E70020024000100240EA
:10069000F01200080C0000200400002013A185B017
:1006A0000FC98DE80F0015A0154A00680490516825
:1006B00001F00C00042804D0082804D0114805B02B
:1006C00070471148FBE7C1F38343C9031DF80300DA
:1006D00009D5516804AAC1F34041515C0A4A50430C
:1006E000B0FBF1F0EBE709494843E8E702030405F2
:1006F000060708090A0B0C0D0E0F1010010200006E
:100700000010024000127A0060F5900000093D00E0
:100710002DE9F84F040070D02078C04DC00749D0B3
:100720006868C0F38100012807D06868C0F38100C1
:10073000022809D16868C00306D52868800339D526
:1007400060680028E7D035E06068B0F5803F0BD0E6
:1007500010B1B0F5A02F11D0286820F480302860A7
:10076000286820F4802002E0286840F48030286067
:10077000606890B1FFF774FE06460AE0286840F40E
:1007800080202860F0E700BFFFF76AFE801B642826
:1007900073D828688003F7D50CE0FFF761FE0646A2
:1007A00005E000BFFFF75CFE801B6428F0D82868D6
:1007B0008003F7D420789A4E80074FF001094FF05C
:1007C000000839D5686810F00C0F07D06868C0F3CE
:1007D0008100022809D16868C00306D42868800710
:1007E00014D52069012808D110E02069B0B1C6F8FD
:1007F0000090FFF735FE074605E00AE1FFF730FEFF
:10080000C01B0228C4D828688007F7D5286861690A
:1008100020F0F80040EAC10028600DE0C6F8008032
:10082000FFF71EFE074604E0FFF71AFEC01B022872
:1008300023D828688007F7D4207800072CD579487A
:10084000A169D9B1C0F80090FFF70AFE074604E09D
:10085000FFF706FEC01B02280FD8686A8007F7D58D
:1008600071484FF4FA510068B0FBF1F0009000BFFE
:100870000098411E0091FAD20EE080E0C0F800809E
:10088000FFF7EEFD074604E0FFF7EAFDC01B022874
:1008900075D8686A8007F7D42078400760D5E86982
:1008A0000027C00008D4E86940F08050E861E8699A
:1008B000012700F0805000905C480168C90513D4FE
:1008C0000168834641F480710160FFF7C9FD8246EB
:1008D00006E000BFFFF7C4FDA0EB0A0064284ED875
:1008E000DBF80000C005F5D5E06801280AD008B1A2
:1008F000052813D0286A20F001002862286A20F019
:10090000040002E0286A40F001002862E06841F239
:10091000883B98B1FFF7A4FD82460BE0286A40F0BF
:1009200004002862EEE700BFFFF79AFDA0EB0A0182
:1009300059455AD8286A8007F6D50CE0FFF790FD94
:10094000824605E0FFF78CFDA0EB0A0159454CD823
:10095000286A8007F6D41FB1E86920F08050E8616A
:10096000E06988B36968C1F38101022944D0022893
:10097000C6F8608004D0FFF773FD044638E034E029
:10098000FFF76EFD074604E0FFF76AFDC01B022873
:100990002BD828688001F7D4206AB0F5803F05D1B4
:1009A0006868A16820F4003008436860D4E9080151
:1009B0000843696821F4741108436860C6F86090C0
:1009C000FFF74EFD044606E025E000BFFFF748FDB7
:1009D000001B022809D828688001F7D51BE000BF5A
:1009E000FFF73EFD001B022802D90320BDE8F88F67
:1009F00028688001F4D40EE00128F7D06868226AE4
:100A000000F48031914204D1616A00F47010884290
:100A100001D00120EAE70020E8E7000000100240D2
:100A200000004242800442420C000020007000405E
:100A300010B5401EB0F1807F01D3012010BD4FF0F2
:100A4000E02460610F21601700F0D8FB0020A06156
:100A500007202061002010BD70B590F83C20012ACD
:100A600023D0012480F83C40022280F83D20036816
:100A70005A689D6822F070060A6832435A600C4B2F
:100A800002689A4205D0B2F1804F02D0094B9A42D7
:100A900004D1496825F080031943916080F83D40F6
:100AA000002180F83C10084670BD022070BD000097
:100AB000002C01400004004010B5040003D094F85D
:100AC0003D0010B107E0012010BD002084F83C007B
:100AD000204600F01FF8022084F83D00211D206808
:100AE00000F078FA012084F8460084F83E0084F88B
:100AF0003F0084F8400084F8410084F8420084F804
:100B0000430084F8440084F8450084F83D00002048
:100B100010BD000008B50C4A01680C48914207D18D
:100B2000816941F400618161806900F4006009E03D
:100B3000B1F1804F07D1C16941F00101C161C069C4
:100B400000F00100009008BD002C014000100240A0
:100B500090F83D10012901D001207047022180F852
:100B60003D1000680949884205D0B0F1804F02D09D
:100B70000749884204D1816801F00701062903D0A2
:100B8000016841F00101016000207047002C014024
:100B90000004004070B5044690F83C00012817D0CE
:100BA000012584F83C50022084F83D0020688268CA
:100BB00022F0770222F47F4282600868502830D009
:100BC0000DDC20284DD005DC98B310283BD148E03F
:100BD000022070BD302844D0402834D139E060284C
:100BE00028D0702806D0B0F5805F2CD0B0F5005F1B
:100BF00029D10AE0CB68D1E90121206800F025FA6B
:100C00002068816841F0770109E0CB68D1E90121D2
:100C1000206800F01AFA2068816841F48041816000
:100C200011E0CA684968206800F0C4FA50212068C1
:100C300007E016E0CA684968206800F0CCFA602135
:100C4000206800F00CFA84F83D50002084F83C0045
:100C500070BDCA684968206800F0ACFA402120687D
:100C6000EFE7226801461046EBE7000000B585B0CB
:100C7000002100910191029103910068B0F1804F31
:100C800010D10948816941F0040181618069694698
:100C900000F00400049002200090019003900348AB
:100CA000FFF7F8FA05B000BD00100240000801404F
:100CB00070B5044690F83C000D4601280AD001208A
:100CC00084F83C0042B1042A18D0082A2AD00C2A01
:100CD0004DD139E0022070BD206800F0C9F92068CC
:100CE000816941F0080181612068816921F0040176
:100CF0008161206881692A69114311E0206800F050
:100D0000DFF92068816941F40061816120688169AF
:100D100021F480618161206881692A6941EA0221A8
:100D2000816124E0206800F0F7F92068C16941F092
:100D30000801C1612068C16921F00401C161206816
:100D4000C1692A69114311E0206800F011FA206896
:100D5000C16941F40061C1612068C16921F4806109
:100D6000C1612068C1692A6941EA0221C16100208C
:100D700084F83C0070BD10B5040003D094F83D0029
:100D800010B107E0012010BD002084F83C0020468F
:100D900000F01EF8022084F83D00211D206800F0BC
:100DA00019F9012084F8460084F83E0084F83F00D9
:100DB00084F8400084F8410084F8420084F843003D
:100DC00084F8440084F8450084F83D00002010BDFC
:100DD0007047000010B50446022249B104290ED024
:100DE000082913D094F84100012816D0012010BD25
:100DF00094F83E000128F9D184F83E200FE094F8E1
:100E00003F000128F2D184F83F2008E094F8400028
:100E10000128EBD184F8402001E084F84120012230
:100E2000206800F005F90E492068884203D1426C21
:100E300042F4004242642068884205D0B0F1804FFD
:100E400002D00849884204D1816801F007010629CF
:100E500003D0016841F001010160002010BD0000D5
:100E6000002C014000040040FEE7000010B586B0F1
:100E700000241748009401940294039404941349A5
:100E8000059401602521C0E901144FF6FF71C0E906
:100E9000031444618461FFF70FFE08B172B6FEE7E8
:100EA0004FF48050009069460948FFF773FE08B17F
:100EB00072B6FEE7049404A905480594FFF7CCFD3B
:100EC000002801D072B6FEE706B010BD002C01402C
:100ED0001000002010B58EB00024079408940994E7
:100EE0000A940B941C2168460C94FFF76DF91D4879
:100EF0004FF08041C0E9001440F2E731C0E90241FF
:100F000004618461FFF7D8FD08B172B6FEE74FF4C3
:100F10008050079007A91348FFF73CFE08B172B64E
:100F2000FEE71048FFF727FF08B172B6FEE70B9403
:100F30000BA90C480C94FFF78FFD08B172B6FEE7C1
:100F40006020CDE900040294042269460548049417
:100F5000FFF7AEFE08B172B6FEE70248FFF786FE65
:100F60000EB010BD58000020FEE7FEE77047704746
:100F7000FFF77CBA30B58FB028216846FFF724F917
:100F800014210AA8FFF720F901210804CDE9001077
:100F90000024029402250491CDE90750C000099075
:100FA0006846FFF7B5FB08B172B6FEE70F20CDE942
:100FB0000A054FF48060CDE90C4001210AA80E9487
:100FC000FFF7D6FA002801D072B6FEE70FB030BDA9
:100FD0007047000070B50268134B144C4FF0804608
:100FE000984203D0B04201D0A04203D122F0700554
:100FF0004A682A43984203D0B04201D0A04203D1AC
:1010000022F44074CA6822434C6922F080022243D1
:1010100002608A68C2620A688262984201D10969E4
:1010200001630121416170BD002C014000040040BA
:1010300010B501F01F030121046A99408C4304623A
:10104000016A9A401143016210BD10B5846842EAFA
:10105000032224F47F440A432243826010BD826845
:1010600022F070020A4342F00701816070470000DD
:1010700030B5026A22F001020262026A43688469A2
:1010800024F073050C682C4322F002058A682A4379
:101090000A4DA8420BD122F00805CA6823F4407318
:1010A0002A434D6922F004021D438B692B434360A0
:1010B000846149684163026230BD0000002C014038
:1010C00030B5026A22F010020262026A4368846943
:1010D0000D6824F4E64444EA05248D6822F02002D9
:1010E00042EA05120B4DA8420ED1CD6822F08002D3
:1010F00042EA05124D6923F4406343EA85038D6992
:1011000022F0400243EA85034360846149688163B9
:10111000026230BD002C014030B5026A22F48072B8
:101120000262036A4268C46923F4007324F0730501
:101130000C682C438D6843EA05230C4DA8420ED160
:10114000CD6823F4006343EA05234D6922F440523D
:1011500042EA05128D6923F4806342EA0512426077
:10116000C4614968C163036230BD0000002C0140C6
:1011700030B5026A22F480520262046A4268C3698E
:101180000D6823F4E64343EA05238D6824F40054F4
:1011900044EA0534064DA84204D14D6922F4804248
:1011A00042EA85124260C36149680164046230BD4D
:1011B000002C014010B5036A046A24F001040462A3
:1011C000846924F0F00444EA021423F00A020A437A
:1011D0008461026210BD10B5036A23F0100303623C
:1011E0008369046A23F4704343EA023224F0A003C3
:1011F00043EA01118261016210BDFEE70907090E91
:10120000002804DB00F1E02080F80014704700F0B3
:101210000F0000F1E02080F8141D704710B5094C54
:101220004FF4FA702168886343F2D40000F00CF8A0
:10123000216840F2E7308863BDE8104049F27C2025
:1012400000F002B858000020044900220B685A62DE
:1012500009684A6A8242FCD37047000010000020EF
:1012600086B0FFF70BF9FFF785FE00241D480094B8
:10127000019402940394816941F0200181618169A4
:1012800001F020010491816941F0040181618069CC
:10129000154D00F004000490002201212846FFF7BC
:1012A000D9F80220012103900091CDE9011469468B
:1012B0002846FEF7EFFFFFF7D9FDFFF70BFE0B48BF
:1012C000FFF746FC094804214830FFF783FD074932
:1012D0004FF4FA7048310968C1F83800FFF79EFFF3
:1012E000FCE7000000100240000801401000002050
:1012F00000000000000000000102030406070809C6
:101300002013000800000020100000002801000841
:101310003013000810000020F0060000440100080F
:101320000100000010000000000000000024F40094
:04000005080000ED02
:00000001FF
